{"contracts/Counter.sol":{"Counter":{"abi":[{"inputs":[],"stateMutability":"nonpayable","type":"constructor"},{"anonymous":false,"inputs":[{"indexed":true,"internalType":"address","name":"operator","type":"address"},{"indexed":false,"internalType":"uint256","name":"newCount","type":"uint256"}],"name":"CountUpdated","type":"event"},{"inputs":[],"name":"count","outputs":[{"internalType":"uint256","name":"","type":"uint256"}],"stateMutability":"view","type":"function"},{"inputs":[],"name":"decrement","outputs":[],"stateMutability":"nonpayable","type":"function"},{"inputs":[],"name":"increment","outputs":[],"stateMutability":"nonpayable","type":"function"},{"inputs":[],"name":"owner","outputs":[{"internalType":"address","name":"","type":"address"}],"stateMutability":"view","type":"function"},{"inputs":[],"name":"reset","outputs":[],"stateMutability":"nonpayable","type":"function"},{"inputs":[{"internalType":"uint256","name":"_count","type":"uint256"}],"name":"setCount","outputs":[],"stateMutability":"nonpayable","type":"function"}],"evm":{"bytecode":{"linkReferences":{},"object":"608060405234801561001057600080fd5b50600180546001600160a01b0319163317905561035a806100326000396000f3fe608060405234801561001057600080fd5b50600436106100625760003560e01c806306661abd146100675780632baeceb7146100835780638da5cb5b1461008d578063d09de08a146100b8578063d14e62b8146100c0578063d826f88f146100d3575b600080fd5b61007060005481565b6040519081526020015b60405180910390f35b61008b6100db565b005b6001546100a0906001600160a01b031681565b6040516001600160a01b03909116815260200161007a565b61008b61018f565b61008b6100ce3660046102c9565b6101a1565b61008b610238565b600080541161013d5760405162461bcd60e51b8152602060048201526024808201527f436f756e7465723a2063616e6e6f742064656372656d656e742062656c6f77206044820152637a65726f60e01b60648201526084015b60405180910390fd5b600160008082825461014f91906102f8565b909155505060005460405190815233907f170de63abeb5e32b35c3def75defe334590e5fdcf704dba0c988ab49e6e4cec0906020015b60405180910390a2565b600160008082825461014f9190610311565b6001546001600160a01b031633146101fb5760405162461bcd60e51b815260206004820181905260248201527f436f756e7465723a2063616c6c6572206973206e6f7420746865206f776e65726044820152606401610134565b600081905560405181815233907f170de63abeb5e32b35c3def75defe334590e5fdcf704dba0c988ab49e6e4cec09060200160405180910390a250565b6001546001600160a01b031633146102925760405162461bcd60e51b815260206004820181905260248201527f436f756e7465723a2063616c6c6572206973206e6f7420746865206f776e65726044820152606401610134565b600080805560405190815233907f170de63abeb5e32b35c3def75defe334590e5fdcf704dba0c988ab49e6e4cec090602001610185565b6000602082840312156102db57600080fd5b5035919050565b634e487b7160e01b600052601160045260246000fd5b8181038181111561030b5761030b6102e2565b92915050565b8082018082111561030b5761030b6102e256fea26469706673582212207fb1fa817015de030c8932f353ae108b14592c0a9fdf5ee7797bb86f0133915164736f6c63430008140033","opcodes":"PUSH1 0x80 PUSH1 0x40 MSTORE CALLVALUE DUP1 ISZERO PUSH2 0x10 JUMPI PUSH1 0x0 DUP1 REVERT JUMPDEST POP PUSH1 0x1 DUP1 SLOAD PUSH1 0x1 PUSH1 0x1 PUSH1 0xA0 SHL SUB NOT AND CALLER OR SWAP1 SSTORE PUSH2 0x35A DUP1 PUSH2 0x32 PUSH1 0x0 CODECOPY PUSH1 0x0 RETURN INVALID PUSH1 0x80 PUSH1 0x40 MSTORE CALLVALUE DUP1 ISZERO PUSH2 0x10 JUMPI PUSH1 0x0 DUP1 REVERT JUMPDEST POP PUSH1 0x4 CALLDATASIZE LT PUSH2 0x62 JUMPI PUSH1 0x0 CALLDATALOAD PUSH1 0xE0 SHR DUP1 PUSH4 0x6661ABD EQ PUSH2 0x67 JUMPI DUP1 PUSH4 0x2BAECEB7 EQ PUSH2 0x83 JUMPI DUP1 PUSH4 0x8DA5CB5B EQ PUSH2 0x8D JUMPI DUP1 PUSH4 0xD09DE08A EQ PUSH2 0xB8 JUMPI DUP1 PUSH4 0xD14E62B8 EQ PUSH2 0xC0 JUMPI DUP1 PUSH4 0xD826F88F EQ PUSH2 0xD3 JUMPI JUMPDEST PUSH1 0x0 DUP1 REVERT JUMPDEST PUSH2 0x70 PUSH1 0x0 SLOAD DUP2 JUMP JUMPDEST PUSH1 0x40 MLOAD SWAP1 DUP2 MSTORE PUSH1 0x20 ADD JUMPDEST PUSH1 0x40 MLOAD DUP1 SWAP2 SUB SWAP1 RETURN JUMPDEST PUSH2 0x8B PUSH2 0xDB JUMP JUMPDEST STOP JUMPDEST PUSH1 0x1 SLOAD PUSH2 0xA0 SWAP1 PUSH1 0x1 PUSH1 0x1 PUSH1 0xA0 SHL SUB AND DUP2 JUMP JUMPDEST PUSH1 0x40 MLOAD PUSH1 0x1 PUSH1 0x1 PUSH1 0xA0 SHL SUB SWAP1 SWAP2 AND DUP2 MSTORE PUSH1 0x20 ADD PUSH2 0x7A JUMP JUMPDEST PUSH2 0x8B PUSH2 0x18F JUMP JUMPDEST PUSH2 0x8B PUSH2 0xCE CALLDATASIZE PUSH1 0x4 PUSH2 0x2C9 JUMP JUMPDEST PUSH2 0x1A1 JUMP JUMPDEST PUSH2 0x8B PUSH2 0x238 JUMP JUMPDEST PUSH1 0x0 DUP1 SLOAD GT PUSH2 0x13D JUMPI PUSH1 0x40 MLOAD PUSH3 0x461BCD PUSH1 0xE5 SHL DUP2 MSTORE PUSH1 0x20 PUSH1 0x4 DUP3 ADD MSTORE PUSH1 0x24 DUP1 DUP3 ADD MSTORE PUSH32 0x436F756E7465723A2063616E6E6F742064656372656D656E742062656C6F7720 PUSH1 0x44 DUP3 ADD MSTORE PUSH4 0x7A65726F PUSH1 0xE0 SHL PUSH1 0x64 DUP3 ADD MSTORE PUSH1 0x84 ADD JUMPDEST PUSH1 0x40 MLOAD DUP1 SWAP2 SUB SWAP1 REVERT JUMPDEST PUSH1 0x1 PUSH1 0x0 DUP1 DUP3 DUP3 SLOAD PUSH2 0x14F SWAP2 SWAP1 PUSH2 0x2F8 JUMP JUMPDEST SWAP1 SWAP2 SSTORE POP POP PUSH1 0x0 SLOAD PUSH1 0x40 MLOAD SWAP1 DUP2 MSTORE CALLER SWAP1 PUSH32 0x170DE63ABEB5E32B35C3DEF75DEFE334590E5FDCF704DBA0C988AB49E6E4CEC0 SWAP1 PUSH1 0x20 ADD JUMPDEST PUSH1 0x40 MLOAD DUP1 SWAP2 SUB SWAP1 LOG2 JUMP JUMPDEST PUSH1 0x1 PUSH1 0x0 DUP1 DUP3 DUP3 SLOAD PUSH2 0x14F SWAP2 SWAP1 PUSH2 0x311 JUMP JUMPDEST PUSH1 0x1 SLOAD PUSH1 0x1 PUSH1 0x1 PUSH1 0xA0 SHL SUB AND CALLER EQ PUSH2 0x1FB JUMPI PUSH1 0x40 MLOAD PUSH3 0x461BCD PUSH1 0xE5 SHL DUP2 MSTORE PUSH1 0x20 PUSH1 0x4 DUP3 ADD DUP2 SWAP1 MSTORE PUSH1 0x24 DUP3 ADD MSTORE PUSH32 0x436F756E7465723A2063616C6C6572206973206E6F7420746865206F776E6572 PUSH1 0x44 DUP3 ADD MSTORE PUSH1 0x64 ADD PUSH2 0x134 JUMP JUMPDEST PUSH1 0x0 DUP2 SWAP1 SSTORE PUSH1 0x40 MLOAD DUP2 DUP2 MSTORE CALLER SWAP1 PUSH32 0x170DE63ABEB5E32B35C3DEF75DEFE334590E5FDCF704DBA0C988AB49E6E4CEC0 SWAP1 PUSH1 0x20 ADD PUSH1 0x40 MLOAD DUP1 SWAP2 SUB SWAP1 LOG2 POP JUMP JUMPDEST PUSH1 0x1 SLOAD PUSH1 0x1 PUSH1 0x1 PUSH1 0xA0 SHL SUB AND CALLER EQ PUSH2 0x292 JUMPI PUSH1 0x40 MLOAD PUSH3 0x461BCD PUSH1 0xE5 SHL DUP2 MSTORE PUSH1 0x20 PUSH1 0x4 DUP3 ADD DUP2 SWAP1 MSTORE PUSH1 0x24 DUP3 ADD MSTORE PUSH32 0x436F756E7465723A2063616C6C6572206973206E6F7420746865206F776E6572 PUSH1 0x44 DUP3 ADD MSTORE PUSH1 0x64 ADD PUSH2 0x134 JUMP JUMPDEST PUSH1 0x0 DUP1 DUP1 SSTORE PUSH1 0x40 MLOAD SWAP1 DUP2 MSTORE CALLER SWAP1 PUSH32 0x170DE63ABEB5E32B35C3DEF75DEFE334590E5FDCF704DBA0C988AB49E6E4CEC0 SWAP1 PUSH1 0x20 ADD PUSH2 0x185 JUMP JUMPDEST PUSH1 0x0 PUSH1 0x20 DUP3 DUP5 SUB SLT ISZERO PUSH2 0x2DB JUMPI PUSH1 0x0 DUP1 REVERT JUMPDEST POP CALLDATALOAD SWAP2 SWAP1 POP JUMP JUMPDEST PUSH4 0x4E487B71 PUSH1 0xE0 SHL PUSH1 0x0 MSTORE PUSH1 0x11 PUSH1 0x4 MSTORE PUSH1 0x24 PUSH1 0x0 REVERT JUMPDEST DUP2 DUP2 SUB DUP2 DUP2 GT ISZERO PUSH2 0x30B JUMPI PUSH2 0x30B PUSH2 0x2E2 JUMP JUMPDEST SWAP3 SWAP2 POP POP JUMP JUMPDEST DUP1 DUP3 ADD DUP1 DUP3 GT ISZERO PUSH2 0x30B JUMPI PUSH2 0x30B PUSH2 0x2E2 JUMP INVALID LOG2 PUSH5 0x6970667358 0x22 SLT KECCAK256 PUSH32 0xB1FA817015DE030C8932F353AE108B14592C0A9FDF5EE7797BB86F0133915164 PUSH20 0x6F6C634300081400330000000000000000000000 "},"methodIdentifiers":{"count()":"06661abd","decrement()":"2baeceb7","increment()":"d09de08a","owner()":"8da5cb5b","reset()":"d826f88f","setCount(uint256)":"d14e62b8"}}}}}