{
  "_format": "hh-sol-artifact-1",
  "contractName": "ARTToken",
  "sourceName": "contracts/ARTToken.sol",
  "abi": [
    {
      "inputs": [],
      "stateMutability": "nonpayable",
      "type": "constructor"
    },
    {
      "anonymous": false,
      "inputs": [
        {
          "indexed": false,
          "internalType": "address",
          "name": "previousAdmin",
          "type": "address"
        },
        {
          "indexed": false,
          "internalType": "address",
          "name": "newAdmin",
          "type": "address"
        }
      ],
      "name": "AdminChanged",
      "type": "event"
    },
    {
      "anonymous": false,
      "inputs": [
        {
          "indexed": true,
          "internalType": "address",
          "name": "owner",
          "type": "address"
        },
        {
          "indexed": true,
          "internalType": "address",
          "name": "spender",
          "type": "address"
        },
        {
          "indexed": false,
          "internalType": "uint256",
          "name": "value",
          "type": "uint256"
        }
      ],
      "name": "Approval",
      "type": "event"
    },
    {
      "anonymous": false,
      "inputs": [
        {
          "indexed": true,
          "internalType": "address",
          "name": "beacon",
          "type": "address"
        }
      ],
      "name": "BeaconUpgraded",
      "type": "event"
    },
    {
      "anonymous": false,
      "inputs": [
        {
          "indexed": true,
          "internalType": "address",
          "name": "account",
          "type": "address"
        },
        {
          "indexed": false,
          "internalType": "bool",
          "name": "status",
          "type": "bool"
        }
      ],
      "name": "BlacklistStatusChanged",
      "type": "event"
    },
    {
      "anonymous": false,
      "inputs": [
        {
          "indexed": true,
          "internalType": "address",
          "name": "account",
          "type": "address"
        },
        {
          "indexed": false,
          "internalType": "bool",
          "name": "status",
          "type": "bool"
        }
      ],
      "name": "ComplianceStatusChanged",
      "type": "event"
    },
    {
      "anonymous": false,
      "inputs": [
        {
          "indexed": false,
          "internalType": "uint8",
          "name": "version",
          "type": "uint8"
        }
      ],
      "name": "Initialized",
      "type": "event"
    },
    {
      "anonymous": false,
      "inputs": [
        {
          "indexed": false,
          "internalType": "address",
          "name": "account",
          "type": "address"
        }
      ],
      "name": "Paused",
      "type": "event"
    },
    {
      "anonymous": false,
      "inputs": [
        {
          "indexed": false,
          "internalType": "uint256",
          "name": "oldFee",
          "type": "uint256"
        },
        {
          "indexed": false,
          "internalType": "uint256",
          "name": "newFee",
          "type": "uint256"
        }
      ],
      "name": "RedemptionFeeChanged",
      "type": "event"
    },
    {
      "anonymous": false,
      "inputs": [
        {
          "indexed": false,
          "internalType": "uint256",
          "name": "reserveIndex",
          "type": "uint256"
        },
        {
          "indexed": false,
          "internalType": "string",
          "name": "name",
          "type": "string"
        },
        {
          "indexed": false,
          "internalType": "uint256",
          "name": "amount",
          "type": "uint256"
        },
        {
          "indexed": false,
          "internalType": "uint256",
          "name": "value",
          "type": "uint256"
        }
      ],
      "name": "ReserveAdded",
      "type": "event"
    },
    {
      "anonymous": false,
      "inputs": [
        {
          "indexed": false,
          "internalType": "uint256",
          "name": "reserveIndex",
          "type": "uint256"
        }
      ],
      "name": "ReserveRemoved",
      "type": "event"
    },
    {
      "anonymous": false,
      "inputs": [
        {
          "indexed": false,
          "internalType": "uint256",
          "name": "reserveIndex",
          "type": "uint256"
        },
        {
          "indexed": false,
          "internalType": "string",
          "name": "name",
          "type": "string"
        },
        {
          "indexed": false,
          "internalType": "uint256",
          "name": "amount",
          "type": "uint256"
        },
        {
          "indexed": false,
          "internalType": "uint256",
          "name": "value",
          "type": "uint256"
        }
      ],
      "name": "ReserveUpdated",
      "type": "event"
    },
    {
      "anonymous": false,
      "inputs": [
        {
          "indexed": true,
          "internalType": "bytes32",
          "name": "role",
          "type": "bytes32"
        },
        {
          "indexed": true,
          "internalType": "bytes32",
          "name": "previousAdminRole",
          "type": "bytes32"
        },
        {
          "indexed": true,
          "internalType": "bytes32",
          "name": "newAdminRole",
          "type": "bytes32"
        }
      ],
      "name": "RoleAdminChanged",
      "type": "event"
    },
    {
      "anonymous": false,
      "inputs": [
        {
          "indexed": true,
          "internalType": "bytes32",
          "name": "role",
          "type": "bytes32"
        },
        {
          "indexed": true,
          "internalType": "address",
          "name": "account",
          "type": "address"
        },
        {
          "indexed": true,
          "internalType": "address",
          "name": "sender",
          "type": "address"
        }
      ],
      "name": "RoleGranted",
      "type": "event"
    },
    {
      "anonymous": false,
      "inputs": [
        {
          "indexed": true,
          "internalType": "bytes32",
          "name": "role",
          "type": "bytes32"
        },
        {
          "indexed": true,
          "internalType": "address",
          "name": "account",
          "type": "address"
        },
        {
          "indexed": true,
          "internalType": "address",
          "name": "sender",
          "type": "address"
        }
      ],
      "name": "RoleRevoked",
      "type": "event"
    },
    {
      "anonymous": false,
      "inputs": [
        {
          "indexed": true,
          "internalType": "address",
          "name": "redeemer",
          "type": "address"
        },
        {
          "indexed": false,
          "internalType": "uint256",
          "name": "amount",
          "type": "uint256"
        },
        {
          "indexed": false,
          "internalType": "uint256",
          "name": "fee",
          "type": "uint256"
        }
      ],
      "name": "TokensRedeemed",
      "type": "event"
    },
    {
      "anonymous": false,
      "inputs": [
        {
          "indexed": true,
          "internalType": "address",
          "name": "from",
          "type": "address"
        },
        {
          "indexed": true,
          "internalType": "address",
          "name": "to",
          "type": "address"
        },
        {
          "indexed": false,
          "internalType": "uint256",
          "name": "value",
          "type": "uint256"
        }
      ],
      "name": "Transfer",
      "type": "event"
    },
    {
      "anonymous": false,
      "inputs": [
        {
          "indexed": false,
          "internalType": "address",
          "name": "account",
          "type": "address"
        }
      ],
      "name": "Unpaused",
      "type": "event"
    },
    {
      "anonymous": false,
      "inputs": [
        {
          "indexed": true,
          "internalType": "address",
          "name": "implementation",
          "type": "address"
        }
      ],
      "name": "Upgraded",
      "type": "event"
    },
    {
      "inputs": [],
      "name": "ASSET_MANAGER_ROLE",
      "outputs": [
        {
          "internalType": "bytes32",
          "name": "",
          "type": "bytes32"
        }
      ],
      "stateMutability": "view",
      "type": "function"
    },
    {
      "inputs": [],
      "name": "COMPLIANCE_ROLE",
      "outputs": [
        {
          "internalType": "bytes32",
          "name": "",
          "type": "bytes32"
        }
      ],
      "stateMutability": "view",
      "type": "function"
    },
    {
      "inputs": [],
      "name": "DEFAULT_ADMIN_ROLE",
      "outputs": [
        {
          "internalType": "bytes32",
          "name": "",
          "type": "bytes32"
        }
      ],
      "stateMutability": "view",
      "type": "function"
    },
    {
      "inputs": [],
      "name": "MINTER_ROLE",
      "outputs": [
        {
          "internalType": "bytes32",
          "name": "",
          "type": "bytes32"
        }
      ],
      "stateMutability": "view",
      "type": "function"
    },
    {
      "inputs": [],
      "name": "PAUSER_ROLE",
      "outputs": [
        {
          "internalType": "bytes32",
          "name": "",
          "type": "bytes32"
        }
      ],
      "stateMutability": "view",
      "type": "function"
    },
    {
      "inputs": [],
      "name": "UPGRADER_ROLE",
      "outputs": [
        {
          "internalType": "bytes32",
          "name": "",
          "type": "bytes32"
        }
      ],
      "stateMutability": "view",
      "type": "function"
    },
    {
      "inputs": [
        {
          "internalType": "string",
          "name": "name",
          "type": "string"
        },
        {
          "internalType": "uint256",
          "name": "amount",
          "type": "uint256"
        },
        {
          "internalType": "uint256",
          "name": "value",
          "type": "uint256"
        }
      ],
      "name": "addReserveAsset",
      "outputs": [],
      "stateMutability": "nonpayable",
      "type": "function"
    },
    {
      "inputs": [
        {
          "internalType": "address",
          "name": "owner",
          "type": "address"
        },
        {
          "internalType": "address",
          "name": "spender",
          "type": "address"
        }
      ],
      "name": "allowance",
      "outputs": [
        {
          "internalType": "uint256",
          "name": "",
          "type": "uint256"
        }
      ],
      "stateMutability": "view",
      "type": "function"
    },
    {
      "inputs": [
        {
          "internalType": "address",
          "name": "spender",
          "type": "address"
        },
        {
          "internalType": "uint256",
          "name": "amount",
          "type": "uint256"
        }
      ],
      "name": "approve",
      "outputs": [
        {
          "internalType": "bool",
          "name": "",
          "type": "bool"
        }
      ],
      "stateMutability": "nonpayable",
      "type": "function"
    },
    {
      "inputs": [
        {
          "internalType": "address",
          "name": "account",
          "type": "address"
        }
      ],
      "name": "balanceOf",
      "outputs": [
        {
          "internalType": "uint256",
          "name": "",
          "type": "uint256"
        }
      ],
      "stateMutability": "view",
      "type": "function"
    },
    {
      "inputs": [
        {
          "internalType": "address[]",
          "name": "accounts",
          "type": "address[]"
        },
        {
          "internalType": "bool[]",
          "name": "statuses",
          "type": "bool[]"
        }
      ],
      "name": "batchSetComplianceStatus",
      "outputs": [],
      "stateMutability": "nonpayable",
      "type": "function"
    },
    {
      "inputs": [
        {
          "internalType": "uint256",
          "name": "amount",
          "type": "uint256"
        }
      ],
      "name": "burn",
      "outputs": [],
      "stateMutability": "nonpayable",
      "type": "function"
    },
    {
      "inputs": [
        {
          "internalType": "address",
          "name": "account",
          "type": "address"
        },
        {
          "internalType": "uint256",
          "name": "amount",
          "type": "uint256"
        }
      ],
      "name": "burnFrom",
      "outputs": [],
      "stateMutability": "nonpayable",
      "type": "function"
    },
    {
      "inputs": [],
      "name": "decimals",
      "outputs": [
        {
          "internalType": "uint8",
          "name": "",
          "type": "uint8"
        }
      ],
      "stateMutability": "view",
      "type": "function"
    },
    {
      "inputs": [
        {
          "internalType": "address",
          "name": "spender",
          "type": "address"
        },
        {
          "internalType": "uint256",
          "name": "subtractedValue",
          "type": "uint256"
        }
      ],
      "name": "decreaseAllowance",
      "outputs": [
        {
          "internalType": "bool",
          "name": "",
          "type": "bool"
        }
      ],
      "stateMutability": "nonpayable",
      "type": "function"
    },
    {
      "inputs": [],
      "name": "getReserveCount",
      "outputs": [
        {
          "internalType": "uint256",
          "name": "",
          "type": "uint256"
        }
      ],
      "stateMutability": "view",
      "type": "function"
    },
    {
      "inputs": [
        {
          "internalType": "uint256",
          "name": "index",
          "type": "uint256"
        }
      ],
      "name": "getReserveInfo",
      "outputs": [
        {
          "internalType": "string",
          "name": "",
          "type": "string"
        },
        {
          "internalType": "uint256",
          "name": "",
          "type": "uint256"
        },
        {
          "internalType": "uint256",
          "name": "",
          "type": "uint256"
        },
        {
          "internalType": "uint256",
          "name": "",
          "type": "uint256"
        }
      ],
      "stateMutability": "view",
      "type": "function"
    },
    {
      "inputs": [],
      "name": "getReserveRatio",
      "outputs": [
        {
          "internalType": "uint256",
          "name": "",
          "type": "uint256"
        }
      ],
      "stateMutability": "view",
      "type": "function"
    },
    {
      "inputs": [
        {
          "internalType": "bytes32",
          "name": "role",
          "type": "bytes32"
        }
      ],
      "name": "getRoleAdmin",
      "outputs": [
        {
          "internalType": "bytes32",
          "name": "",
          "type": "bytes32"
        }
      ],
      "stateMutability": "view",
      "type": "function"
    },
    {
      "inputs": [
        {
          "internalType": "bytes32",
          "name": "role",
          "type": "bytes32"
        },
        {
          "internalType": "address",
          "name": "account",
          "type": "address"
        }
      ],
      "name": "grantRole",
      "outputs": [],
      "stateMutability": "nonpayable",
      "type": "function"
    },
    {
      "inputs": [
        {
          "internalType": "bytes32",
          "name": "role",
          "type": "bytes32"
        },
        {
          "internalType": "address",
          "name": "account",
          "type": "address"
        }
      ],
      "name": "hasRole",
      "outputs": [
        {
          "internalType": "bool",
          "name": "",
          "type": "bool"
        }
      ],
      "stateMutability": "view",
      "type": "function"
    },
    {
      "inputs": [
        {
          "internalType": "address",
          "name": "spender",
          "type": "address"
        },
        {
          "internalType": "uint256",
          "name": "addedValue",
          "type": "uint256"
        }
      ],
      "name": "increaseAllowance",
      "outputs": [
        {
          "internalType": "bool",
          "name": "",
          "type": "bool"
        }
      ],
      "stateMutability": "nonpayable",
      "type": "function"
    },
    {
      "inputs": [
        {
          "internalType": "string",
          "name": "name",
          "type": "string"
        },
        {
          "internalType": "string",
          "name": "symbol",
          "type": "string"
        },
        {
          "internalType": "address",
          "name": "initialAdmin",
          "type": "address"
        }
      ],
      "name": "initialize",
      "outputs": [],
      "stateMutability": "nonpayable",
      "type": "function"
    },
    {
      "inputs": [
        {
          "internalType": "address",
          "name": "",
          "type": "address"
        }
      ],
      "name": "isBlacklisted",
      "outputs": [
        {
          "internalType": "bool",
          "name": "",
          "type": "bool"
        }
      ],
      "stateMutability": "view",
      "type": "function"
    },
    {
      "inputs": [
        {
          "internalType": "address",
          "name": "",
          "type": "address"
        }
      ],
      "name": "isCompliant",
      "outputs": [
        {
          "internalType": "bool",
          "name": "",
          "type": "bool"
        }
      ],
      "stateMutability": "view",
      "type": "function"
    },
    {
      "inputs": [],
      "name": "minRedemptionAmount",
      "outputs": [
        {
          "internalType": "uint256",
          "name": "",
          "type": "uint256"
        }
      ],
      "stateMutability": "view",
      "type": "function"
    },
    {
      "inputs": [
        {
          "internalType": "address",
          "name": "to",
          "type": "address"
        },
        {
          "internalType": "uint256",
          "name": "amount",
          "type": "uint256"
        }
      ],
      "name": "mint",
      "outputs": [],
      "stateMutability": "nonpayable",
      "type": "function"
    },
    {
      "inputs": [],
      "name": "name",
      "outputs": [
        {
          "internalType": "string",
          "name": "",
          "type": "string"
        }
      ],
      "stateMutability": "view",
      "type": "function"
    },
    {
      "inputs": [],
      "name": "pause",
      "outputs": [],
      "stateMutability": "nonpayable",
      "type": "function"
    },
    {
      "inputs": [],
      "name": "paused",
      "outputs": [
        {
          "internalType": "bool",
          "name": "",
          "type": "bool"
        }
      ],
      "stateMutability": "view",
      "type": "function"
    },
    {
      "inputs": [],
      "name": "proxiableUUID",
      "outputs": [
        {
          "internalType": "bytes32",
          "name": "",
          "type": "bytes32"
        }
      ],
      "stateMutability": "view",
      "type": "function"
    },
    {
      "inputs": [
        {
          "internalType": "uint256",
          "name": "amount",
          "type": "uint256"
        }
      ],
      "name": "redeem",
      "outputs": [],
      "stateMutability": "nonpayable",
      "type": "function"
    },
    {
      "inputs": [],
      "name": "redemptionFee",
      "outputs": [
        {
          "internalType": "uint256",
          "name": "",
          "type": "uint256"
        }
      ],
      "stateMutability": "view",
      "type": "function"
    },
    {
      "inputs": [
        {
          "internalType": "uint256",
          "name": "index",
          "type": "uint256"
        }
      ],
      "name": "removeReserveAsset",
      "outputs": [],
      "stateMutability": "nonpayable",
      "type": "function"
    },
    {
      "inputs": [
        {
          "internalType": "bytes32",
          "name": "role",
          "type": "bytes32"
        },
        {
          "internalType": "address",
          "name": "account",
          "type": "address"
        }
      ],
      "name": "renounceRole",
      "outputs": [],
      "stateMutability": "nonpayable",
      "type": "function"
    },
    {
      "inputs": [
        {
          "internalType": "uint256",
          "name": "",
          "type": "uint256"
        }
      ],
      "name": "reserves",
      "outputs": [
        {
          "internalType": "string",
          "name": "name",
          "type": "string"
        },
        {
          "internalType": "uint256",
          "name": "amount",
          "type": "uint256"
        },
        {
          "internalType": "uint256",
          "name": "value",
          "type": "uint256"
        },
        {
          "internalType": "uint256",
          "name": "timestamp",
          "type": "uint256"
        }
      ],
      "stateMutability": "view",
      "type": "function"
    },
    {
      "inputs": [
        {
          "internalType": "bytes32",
          "name": "role",
          "type": "bytes32"
        },
        {
          "internalType": "address",
          "name": "account",
          "type": "address"
        }
      ],
      "name": "revokeRole",
      "outputs": [],
      "stateMutability": "nonpayable",
      "type": "function"
    },
    {
      "inputs": [
        {
          "internalType": "address",
          "name": "account",
          "type": "address"
        },
        {
          "internalType": "bool",
          "name": "status",
          "type": "bool"
        }
      ],
      "name": "setBlacklistStatus",
      "outputs": [],
      "stateMutability": "nonpayable",
      "type": "function"
    },
    {
      "inputs": [
        {
          "internalType": "address",
          "name": "account",
          "type": "address"
        },
        {
          "internalType": "bool",
          "name": "status",
          "type": "bool"
        }
      ],
      "name": "setComplianceStatus",
      "outputs": [],
      "stateMutability": "nonpayable",
      "type": "function"
    },
    {
      "inputs": [
        {
          "internalType": "uint256",
          "name": "amount",
          "type": "uint256"
        }
      ],
      "name": "setMinRedemptionAmount",
      "outputs": [],
      "stateMutability": "nonpayable",
      "type": "function"
    },
    {
      "inputs": [
        {
          "internalType": "uint256",
          "name": "newFee",
          "type": "uint256"
        }
      ],
      "name": "setRedemptionFee",
      "outputs": [],
      "stateMutability": "nonpayable",
      "type": "function"
    },
    {
      "inputs": [
        {
          "internalType": "bytes4",
          "name": "interfaceId",
          "type": "bytes4"
        }
      ],
      "name": "supportsInterface",
      "outputs": [
        {
          "internalType": "bool",
          "name": "",
          "type": "bool"
        }
      ],
      "stateMutability": "view",
      "type": "function"
    },
    {
      "inputs": [],
      "name": "symbol",
      "outputs": [
        {
          "internalType": "string",
          "name": "",
          "type": "string"
        }
      ],
      "stateMutability": "view",
      "type": "function"
    },
    {
      "inputs": [],
      "name": "totalReserveValue",
      "outputs": [
        {
          "internalType": "uint256",
          "name": "",
          "type": "uint256"
        }
      ],
      "stateMutability": "view",
      "type": "function"
    },
    {
      "inputs": [],
      "name": "totalSupply",
      "outputs": [
        {
          "internalType": "uint256",
          "name": "",
          "type": "uint256"
        }
      ],
      "stateMutability": "view",
      "type": "function"
    },
    {
      "inputs": [
        {
          "internalType": "address",
          "name": "to",
          "type": "address"
        },
        {
          "internalType": "uint256",
          "name": "amount",
          "type": "uint256"
        }
      ],
      "name": "transfer",
      "outputs": [
        {
          "internalType": "bool",
          "name": "",
          "type": "bool"
        }
      ],
      "stateMutability": "nonpayable",
      "type": "function"
    },
    {
      "inputs": [
        {
          "internalType": "address",
          "name": "from",
          "type": "address"
        },
        {
          "internalType": "address",
          "name": "to",
          "type": "address"
        },
        {
          "internalType": "uint256",
          "name": "amount",
          "type": "uint256"
        }
      ],
      "name": "transferFrom",
      "outputs": [
        {
          "internalType": "bool",
          "name": "",
          "type": "bool"
        }
      ],
      "stateMutability": "nonpayable",
      "type": "function"
    },
    {
      "inputs": [],
      "name": "unpause",
      "outputs": [],
      "stateMutability": "nonpayable",
      "type": "function"
    },
    {
      "inputs": [
        {
          "internalType": "uint256",
          "name": "index",
          "type": "uint256"
        },
        {
          "internalType": "uint256",
          "name": "amount",
          "type": "uint256"
        },
        {
          "internalType": "uint256",
          "name": "value",
          "type": "uint256"
        }
      ],
      "name": "updateReserveAsset",
      "outputs": [],
      "stateMutability": "nonpayable",
      "type": "function"
    },
    {
      "inputs": [
        {
          "internalType": "address",
          "name": "newImplementation",
          "type": "address"
        }
      ],
      "name": "upgradeTo",
      "outputs": [],
      "stateMutability": "nonpayable",
      "type": "function"
    },
    {
      "inputs": [
        {
          "internalType": "address",
          "name": "newImplementation",
          "type": "address"
        },
        {
          "internalType": "bytes",
          "name": "data",
          "type": "bytes"
        }
      ],
      "name": "upgradeToAndCall",
      "outputs": [],
      "stateMutability": "payable",
      "type": "function"
    }
  ],
  "bytecode": "0x60a0604052306080523480156200001557600080fd5b506200002062000026565b620000e7565b600054610100900460ff1615620000935760405162461bcd60e51b815260206004820152602760248201527f496e697469616c697a61626c653a20636f6e747261637420697320696e697469604482015266616c697a696e6760c81b606482015260840160405180910390fd5b60005460ff90811614620000e5576000805460ff191660ff9081179091556040519081527f7f26b83ff96e1f2b6a682f133852f6798a09c465da95921460cefb38474024989060200160405180910390a15b565b6080516138706200011f60003960008181611099015281816110d90152818161128a015281816112ca015261135901526138706000f3fe6080604052600436106102e45760003560e01c806356b6d0d511610190578063a457c2d7116100dc578063db006a7511610095578063e616efce1161006f578063e616efce146108c4578063e63ab1e9146108e4578063f72c0d8b14610906578063fe575a871461093a57600080fd5b8063db006a7514610864578063dd62ed3e14610884578063e1414473146108a457600080fd5b8063a457c2d714610797578063a4b32de8146107b7578063a9059cbb146107d9578063d3b8c2a2146107f9578063d539139314610810578063d547741f1461084457600080fd5b80638456cb5911610149578063998065461161012357806399806546146107245780639f027e731461073a578063a200e5d014610751578063a217fddf1461078257600080fd5b80638456cb59146106da57806391d14854146106ef57806395d89b411461070f57600080fd5b806356b6d0d5146106175780635c975abb1461062c57806370a082311461064457806379cc67901461067a5780637dbc1df01461069a5780638334278d146106ba57600080fd5b80632f2ff15d1161024f57806340c10f1911610208578063464f2e99116101e2578063464f2e99146105af5780634f1ef286146105cf57806352d1902d146105e2578063539150d7146105f757600080fd5b806340c10f191461055857806342966c6814610578578063458f58151461059857600080fd5b80632f2ff15d146104a7578063313ce567146104c757806336568abe146104e35780633659cfe61461050357806339509351146105235780633f4ba83a1461054357600080fd5b8063095ea7b3116102a1578063095ea7b3146103d25780630d4476b5146103f257806318160ddd1461041257806323b872dd14610427578063248a9ca31461044757806325d421941461047757600080fd5b806301ffc9a7146102e957806303d29d281461031e578063062d3bd71461034057806306fdde03146103705780630757126514610392578063077f224a146103b2575b600080fd5b3480156102f557600080fd5b50610309610304366004612c7a565b61096b565b60405190151581526020015b60405180910390f35b34801561032a57600080fd5b5061033e610339366004612cd0565b6109a2565b005b34801561034c57600080fd5b506103626000805160206137b483398151915281565b604051908152602001610315565b34801561037c57600080fd5b50610385610a1c565b6040516103159190612d53565b34801561039e57600080fd5b5061033e6103ad366004612d66565b610aae565b3480156103be57600080fd5b5061033e6103cd366004612e3e565b610c1c565b3480156103de57600080fd5b506103096103ed366004612eb2565b610e09565b3480156103fe57600080fd5b5061033e61040d366004612cd0565b610e21565b34801561041e57600080fd5b50603554610362565b34801561043357600080fd5b50610309610442366004612edc565b610e92565b34801561045357600080fd5b50610362610462366004612f18565b600090815260fb602052604090206001015490565b34801561048357600080fd5b50610497610492366004612f18565b610eb6565b6040516103159493929190612f31565b3480156104b357600080fd5b5061033e6104c2366004612f60565b610fe7565b3480156104d357600080fd5b5060405160128152602001610315565b3480156104ef57600080fd5b5061033e6104fe366004612f60565b611011565b34801561050f57600080fd5b5061033e61051e366004612f83565b61108f565b34801561052f57600080fd5b5061030961053e366004612eb2565b61116e565b34801561054f57600080fd5b5061033e611190565b34801561056457600080fd5b5061033e610573366004612eb2565b6111b0565b34801561058457600080fd5b5061033e610593366004612f18565b611257565b3480156105a457600080fd5b506103626101955481565b3480156105bb57600080fd5b5061033e6105ca366004612f18565b611261565b61033e6105dd366004612f9e565b611280565b3480156105ee57600080fd5b5061036261134c565b34801561060357600080fd5b5061033e610612366004613000565b6113ff565b34801561062357600080fd5b50610362611521565b34801561063857600080fd5b5060975460ff16610309565b34801561065057600080fd5b5061036261065f366004612f83565b6001600160a01b031660009081526033602052604090205490565b34801561068657600080fd5b5061033e610695366004612eb2565b611572565b3480156106a657600080fd5b5061033e6106b5366004612f18565b611587565b3480156106c657600080fd5b506104976106d5366004612f18565b611631565b3480156106e657600080fd5b5061033e6116fa565b3480156106fb57600080fd5b5061030961070a366004612f60565b61171a565b34801561071b57600080fd5b50610385611745565b34801561073057600080fd5b5061019354610362565b34801561074657600080fd5b506103626101965481565b34801561075d57600080fd5b5061030961076c366004612f83565b6101916020526000908152604090205460ff1681565b34801561078e57600080fd5b50610362600081565b3480156107a357600080fd5b506103096107b2366004612eb2565b611754565b3480156107c357600080fd5b5061036260008051602061381b83398151915281565b3480156107e557600080fd5b506103096107f4366004612eb2565b6117cf565b34801561080557600080fd5b506103626101945481565b34801561081c57600080fd5b506103627f9f2df0fed2c77648de5860a4cc508cd0818c85b8b8a1ab4ceeef8d981c8956a681565b34801561085057600080fd5b5061033e61085f366004612f60565b6117dd565b34801561087057600080fd5b5061033e61087f366004612f18565b611802565b34801561089057600080fd5b5061036261089f36600461307f565b611986565b3480156108b057600080fd5b5061033e6108bf3660046130f5565b6119b1565b3480156108d057600080fd5b5061033e6108df366004612f18565b611b43565b3480156108f057600080fd5b506103626000805160206137d483398151915281565b34801561091257600080fd5b506103627f189ab7a9244df0848122154315af71fe140f3db0fe014031783b0946b8c9d2e381565b34801561094657600080fd5b50610309610955366004612f83565b6101926020526000908152604090205460ff1681565b60006001600160e01b03198216637965db0b60e01b148061099c57506301ffc9a760e01b6001600160e01b03198316145b92915050565b6000805160206137b48339815191526109ba81611ccf565b6001600160a01b03831660008181526101926020908152604091829020805460ff191686151590811790915591519182527fbece2c59ff19aac27479189f9483d2ef16545a8b28e6153240d00d393a6496f891015b60405180910390a2505050565b606060368054610a2b90613161565b80601f0160208091040260200160405190810160405280929190818152602001828054610a5790613161565b8015610aa45780601f10610a7957610100808354040283529160200191610aa4565b820191906000526020600020905b815481529060010190602001808311610a8757829003601f168201915b5050505050905090565b60008051602061381b833981519152610ac681611ccf565b610193548410610af15760405162461bcd60e51b8152600401610ae89061319b565b60405180910390fd5b816101938581548110610b0657610b066131d2565b90600052602060002090600402016002015461019454610b2691906131fe565b610b309190613211565b61019481905550826101938581548110610b4c57610b4c6131d2565b906000526020600020906004020160010181905550816101938581548110610b7657610b766131d2565b906000526020600020906004020160020181905550426101938581548110610ba057610ba06131d2565b9060005260206000209060040201600301819055507f8000f3baa0728b2cd1629781c31ba6340088e26a975e103a1a5ff9056f40d377846101938681548110610beb57610beb6131d2565b90600052602060002090600402016000018585604051610c0e9493929190613224565b60405180910390a150505050565b600054610100900460ff1615808015610c3c5750600054600160ff909116105b80610c565750303b158015610c56575060005460ff166001145b610cb95760405162461bcd60e51b815260206004820152602e60248201527f496e697469616c697a61626c653a20636f6e747261637420697320616c72656160448201526d191e481a5b9a5d1a585b1a5e995960921b6064820152608401610ae8565b6000805460ff191660011790558015610cdc576000805461ff0019166101001790555b610ce68484611cd9565b610cee611d0a565b610cf6611d33565b610cfe611d0a565b610d06611d0a565b610d11600083611d62565b610d296000805160206137d483398151915283611d62565b610d537f9f2df0fed2c77648de5860a4cc508cd0818c85b8b8a1ab4ceeef8d981c8956a683611d62565b610d6b6000805160206137b483398151915283611d62565b610d8360008051602061381b83398151915283611d62565b610dad7f189ab7a9244df0848122154315af71fe140f3db0fe014031783b0946b8c9d2e383611d62565b60326101955568056bc75e2d63100000610196558015610e03576000805461ff0019169055604051600181527f7f26b83ff96e1f2b6a682f133852f6798a09c465da95921460cefb384740249890602001610c0e565b50505050565b600033610e17818585611de8565b5060019392505050565b6000805160206137b4833981519152610e3981611ccf565b6001600160a01b03831660008181526101916020908152604091829020805460ff191686151590811790915591519182527ff1bf4fdc75f29b6c8f35b7808597b7e9c104efd356c3f8ee86e76023da1417e09101610a0f565b600033610ea0858285611f0c565b610eab858585611f80565b506001949350505050565b60606000806000610193805490508510610ee25760405162461bcd60e51b8152600401610ae89061319b565b60006101938681548110610ef857610ef86131d2565b9060005260206000209060040201604051806080016040529081600082018054610f2190613161565b80601f0160208091040260200160405190810160405280929190818152602001828054610f4d90613161565b8015610f9a5780601f10610f6f57610100808354040283529160200191610f9a565b820191906000526020600020905b815481529060010190602001808311610f7d57829003601f168201915b505050505081526020016001820154815260200160028201548152602001600382015481525050905080600001518160200151826040015183606001519450945094509450509193509193565b600082815260fb602052604090206001015461100281611ccf565b61100c8383611d62565b505050565b6001600160a01b03811633146110815760405162461bcd60e51b815260206004820152602f60248201527f416363657373436f6e74726f6c3a2063616e206f6e6c792072656e6f756e636560448201526e103937b632b9903337b91039b2b63360891b6064820152608401610ae8565b61108b8282612136565b5050565b6001600160a01b037f00000000000000000000000000000000000000000000000000000000000000001630036110d75760405162461bcd60e51b8152600401610ae8906132c1565b7f00000000000000000000000000000000000000000000000000000000000000006001600160a01b0316611120600080516020613794833981519152546001600160a01b031690565b6001600160a01b0316146111465760405162461bcd60e51b8152600401610ae89061330d565b61114f8161219d565b6040805160008082526020820190925261116b918391906121c7565b50565b600033610e178185856111818383611986565b61118b9190613211565b611de8565b6000805160206137d48339815191526111a881611ccf565b61116b612332565b7f9f2df0fed2c77648de5860a4cc508cd0818c85b8b8a1ab4ceeef8d981c8956a66111da81611ccf565b6001600160a01b0383166000908152610191602052604090205460ff166112135760405162461bcd60e51b8152600401610ae890613359565b6001600160a01b0383166000908152610192602052604090205460ff161561124d5760405162461bcd60e51b8152600401610ae89061339a565b61100c8383612384565b61116b3382612451565b60008051602061381b83398151915261127981611ccf565b5061019655565b6001600160a01b037f00000000000000000000000000000000000000000000000000000000000000001630036112c85760405162461bcd60e51b8152600401610ae8906132c1565b7f00000000000000000000000000000000000000000000000000000000000000006001600160a01b0316611311600080516020613794833981519152546001600160a01b031690565b6001600160a01b0316146113375760405162461bcd60e51b8152600401610ae89061330d565b6113408261219d565b61108b828260016121c7565b6000306001600160a01b037f000000000000000000000000000000000000000000000000000000000000000016146113ec5760405162461bcd60e51b815260206004820152603860248201527f555550535570677261646561626c653a206d757374206e6f742062652063616c60448201527f6c6564207468726f7567682064656c656761746563616c6c00000000000000006064820152608401610ae8565b5060008051602061379483398151915290565b60008051602061381b83398151915261141781611ccf565b6040805160a06020601f880181900402820181019092526080810186815261019392829190899089908190850183828082843760009201829052509385525050506020808301889052604083018790524260609093019290925283546001810185559381522081519192600402019081906114929082613422565b5060208201518160010155604082015181600201556060820151816003015550508161019460008282546114c69190613211565b9091555050610193547f7fd29e83a762ebd913ca837d4442385b0e2c91f407df196d94a591e479651ecd906114fd906001906131fe565b868686866040516115129594939291906134e2565b60405180910390a15050505050565b60008061152d60355490565b90508060000361153f57600091505090565b806101945460646115509190613529565b61156290670de0b6b3a7640000613529565b61156c9190613540565b91505090565b61157d823383611f0c565b61108b8282612451565b60008051602061381b83398151915261159f81611ccf565b6101f48211156115ea5760405162461bcd60e51b8152602060048201526016602482015275082a4a8a8ded6cadc7440cccaca40e8dede40d0d2ced60531b6044820152606401610ae8565b61019580549083905560408051828152602081018590527f0532c504cef2f286613fca7677d22bdbf2ba95cbc658c563caf1b8af898643bd910160405180910390a1505050565b610193818154811061164257600080fd5b906000526020600020906004020160009150905080600001805461166590613161565b80601f016020809104026020016040519081016040528092919081815260200182805461169190613161565b80156116de5780601f106116b3576101008083540402835291602001916116de565b820191906000526020600020905b8154815290600101906020018083116116c157829003601f168201915b5050505050908060010154908060020154908060030154905084565b6000805160206137d483398151915261171281611ccf565b61116b612591565b600091825260fb602090815260408084206001600160a01b0393909316845291905290205460ff1690565b606060378054610a2b90613161565b600033816117628286611986565b9050838110156117c25760405162461bcd60e51b815260206004820152602560248201527f45524332303a2064656372656173656420616c6c6f77616e63652062656c6f77604482015264207a65726f60d81b6064820152608401610ae8565b610eab8286868403611de8565b600033610e17818585611f80565b600082815260fb60205260409020600101546117f881611ccf565b61100c8383612136565b61180a6125ce565b6101965481101561185d5760405162461bcd60e51b815260206004820152601e60248201527f415254546f6b656e3a20616d6f756e742062656c6f77206d696e696d756d00006044820152606401610ae8565b336000908152610191602052604090205460ff166118bd5760405162461bcd60e51b815260206004820152601760248201527f415254546f6b656e3a206e6f7420636f6d706c69616e740000000000000000006044820152606401610ae8565b336000908152610192602052604090205460ff16156119165760405162461bcd60e51b8152602060048201526015602482015274105495151bdad95b8e88189b1858dadb1a5cdd1959605a1b6044820152606401610ae8565b6000612710610195548361192a9190613529565b6119349190613540565b9050600061194282846131fe565b905061194e3384612451565b604080518481526020810184905233917fd171fb179b26c49e23fe46eddd44d3048a1ad277b62144ac0725fbcf1dbf6d529101610a0f565b6001600160a01b03918216600090815260346020908152604080832093909416825291909152205490565b6000805160206137b48339815191526119c981611ccf565b838214611a185760405162461bcd60e51b815260206004820181905260248201527f415254546f6b656e3a20617272617973206c656e677468206d69736d617463686044820152606401610ae8565b60005b84811015611b3b57838382818110611a3557611a356131d2565b9050602002016020810190611a4a9190613562565b6101916000888885818110611a6157611a616131d2565b9050602002016020810190611a769190612f83565b6001600160a01b031681526020810191909152604001600020805460ff1916911515919091179055858582818110611ab057611ab06131d2565b9050602002016020810190611ac59190612f83565b6001600160a01b03167ff1bf4fdc75f29b6c8f35b7808597b7e9c104efd356c3f8ee86e76023da1417e0858584818110611b0157611b016131d2565b9050602002016020810190611b169190613562565b604051901515815260200160405180910390a280611b338161357d565b915050611a1b565b505050505050565b60008051602061381b833981519152611b5b81611ccf565b610193548210611b7d5760405162461bcd60e51b8152600401610ae89061319b565b6101938281548110611b9157611b916131d2565b9060005260206000209060040201600201546101946000828254611bb591906131fe565b909155505061019354611bca906001906131fe565b8214611c4d576101938054611be1906001906131fe565b81548110611bf157611bf16131d2565b90600052602060002090600402016101938381548110611c1357611c136131d2565b6000918252602090912060049091020180611c2e8382613596565b5060018281015490820155600280830154908201556003918201549101555b610193805480611c5f57611c5f613671565b60008281526020812060001990920191600483020190611c7f8282612c2c565b506000600182018190556002820181905560039091015590556040518281527fa488733d5501a8c6042ace2010686ab71fa135ed80aac57b34a86c0af0c663219060200160405180910390a15050565b61116b8133612614565b600054610100900460ff16611d005760405162461bcd60e51b8152600401610ae890613687565b61108b828261266d565b600054610100900460ff16611d315760405162461bcd60e51b8152600401610ae890613687565b565b600054610100900460ff16611d5a5760405162461bcd60e51b8152600401610ae890613687565b611d316126ad565b611d6c828261171a565b61108b57600082815260fb602090815260408083206001600160a01b03851684529091529020805460ff19166001179055611da43390565b6001600160a01b0316816001600160a01b0316837f2f8788117e7eff1d82e926ec794901d17c78024a50270940304540a733656f0d60405160405180910390a45050565b6001600160a01b038316611e4a5760405162461bcd60e51b8152602060048201526024808201527f45524332303a20617070726f76652066726f6d20746865207a65726f206164646044820152637265737360e01b6064820152608401610ae8565b6001600160a01b038216611eab5760405162461bcd60e51b815260206004820152602260248201527f45524332303a20617070726f766520746f20746865207a65726f206164647265604482015261737360f01b6064820152608401610ae8565b6001600160a01b0383811660008181526034602090815260408083209487168084529482529182902085905590518481527f8c5be1e5ebec7d5bd14f71427d1e84f3dd0314c0f7b2291e5b200ac8c7c3b925910160405180910390a3505050565b6000611f188484611986565b90506000198114610e035781811015611f735760405162461bcd60e51b815260206004820152601d60248201527f45524332303a20696e73756666696369656e7420616c6c6f77616e63650000006044820152606401610ae8565b610e038484848403611de8565b6001600160a01b038316611fe45760405162461bcd60e51b815260206004820152602560248201527f45524332303a207472616e736665722066726f6d20746865207a65726f206164604482015264647265737360d81b6064820152608401610ae8565b6001600160a01b0382166120465760405162461bcd60e51b815260206004820152602360248201527f45524332303a207472616e7366657220746f20746865207a65726f206164647260448201526265737360e81b6064820152608401610ae8565b6120518383836126e0565b6001600160a01b038316600090815260336020526040902054818110156120c95760405162461bcd60e51b815260206004820152602660248201527f45524332303a207472616e7366657220616d6f756e7420657863656564732062604482015265616c616e636560d01b6064820152608401610ae8565b6001600160a01b0380851660008181526033602052604080822086860390559286168082529083902080548601905591517fddf252ad1be2c89b69c2b068fc378daa952ba7f163c4a11628f55a4df523b3ef906121299086815260200190565b60405180910390a3610e03565b612140828261171a565b1561108b57600082815260fb602090815260408083206001600160a01b0385168085529252808320805460ff1916905551339285917ff6391f5c32d9c69d2a47ea670b442974b53935d1edc7fd64eb21e047a839171b9190a45050565b7f189ab7a9244df0848122154315af71fe140f3db0fe014031783b0946b8c9d2e361108b81611ccf565b7f4910fdfa16fed3260ed0e7147f7cc6da11a60208b5b9406d12a635614ffd91435460ff16156121fa5761100c836127ea565b826001600160a01b03166352d1902d6040518163ffffffff1660e01b8152600401602060405180830381865afa925050508015612254575060408051601f3d908101601f19168201909252612251918101906136d2565b60015b6122b75760405162461bcd60e51b815260206004820152602e60248201527f45524331393637557067726164653a206e657720696d706c656d656e7461746960448201526d6f6e206973206e6f74205555505360901b6064820152608401610ae8565b60008051602061379483398151915281146123265760405162461bcd60e51b815260206004820152602960248201527f45524331393637557067726164653a20756e737570706f727465642070726f786044820152681a58589b195555525160ba1b6064820152608401610ae8565b5061100c838383612886565b61233a6128ab565b6097805460ff191690557f5db9ee0a495bf2e6ff9c91a7834c1ba4fdd244a5e8aa4e537bd38aeae4b073aa335b6040516001600160a01b03909116815260200160405180910390a1565b6001600160a01b0382166123da5760405162461bcd60e51b815260206004820152601f60248201527f45524332303a206d696e7420746f20746865207a65726f2061646472657373006044820152606401610ae8565b6123e6600083836126e0565b80603560008282546123f89190613211565b90915550506001600160a01b0382166000818152603360209081526040808320805486019055518481527fddf252ad1be2c89b69c2b068fc378daa952ba7f163c4a11628f55a4df523b3ef910160405180910390a35050565b6001600160a01b0382166124b15760405162461bcd60e51b815260206004820152602160248201527f45524332303a206275726e2066726f6d20746865207a65726f206164647265736044820152607360f81b6064820152608401610ae8565b6124bd826000836126e0565b6001600160a01b038216600090815260336020526040902054818110156125315760405162461bcd60e51b815260206004820152602260248201527f45524332303a206275726e20616d6f756e7420657863656564732062616c616e604482015261636560f01b6064820152608401610ae8565b6001600160a01b03831660008181526033602090815260408083208686039055603580548790039055518581529192917fddf252ad1be2c89b69c2b068fc378daa952ba7f163c4a11628f55a4df523b3ef910160405180910390a3505050565b6125996125ce565b6097805460ff191660011790557f62e78cea01bee320cd4e420270b5ea74000d11b0c9f74754ebdbfc544b05a2586123673390565b60975460ff1615611d315760405162461bcd60e51b815260206004820152601060248201526f14185d5cd8589b194e881c185d5cd95960821b6044820152606401610ae8565b61261e828261171a565b61108b5761262b816128f4565b612636836020612906565b6040516020016126479291906136eb565b60408051601f198184030181529082905262461bcd60e51b8252610ae891600401612d53565b600054610100900460ff166126945760405162461bcd60e51b8152600401610ae890613687565b60366126a08382613422565b50603761100c8282613422565b600054610100900460ff166126d45760405162461bcd60e51b8152600401610ae890613687565b6097805460ff19169055565b6126e86125ce565b6001600160a01b0383161580159061270857506001600160a01b03821615155b1561100c576001600160a01b0383166000908152610192602052604090205460ff16156127775760405162461bcd60e51b815260206004820152601f60248201527f415254546f6b656e3a2073656e64657220697320626c61636b6c6973746564006044820152606401610ae8565b6001600160a01b0382166000908152610192602052604090205460ff16156127b15760405162461bcd60e51b8152600401610ae89061339a565b6001600160a01b0382166000908152610191602052604090205460ff1661100c5760405162461bcd60e51b8152600401610ae890613359565b6001600160a01b0381163b6128575760405162461bcd60e51b815260206004820152602d60248201527f455243313936373a206e657720696d706c656d656e746174696f6e206973206e60448201526c1bdd08184818dbdb9d1c9858dd609a1b6064820152608401610ae8565b60008051602061379483398151915280546001600160a01b0319166001600160a01b0392909216919091179055565b61288f83612aa9565b60008251118061289c5750805b1561100c57610e038383612ae9565b60975460ff16611d315760405162461bcd60e51b815260206004820152601460248201527314185d5cd8589b194e881b9bdd081c185d5cd95960621b6044820152606401610ae8565b606061099c6001600160a01b03831660145b60606000612915836002613529565b612920906002613211565b67ffffffffffffffff81111561293857612938612d92565b6040519080825280601f01601f191660200182016040528015612962576020820181803683370190505b509050600360fc1b8160008151811061297d5761297d6131d2565b60200101906001600160f81b031916908160001a905350600f60fb1b816001815181106129ac576129ac6131d2565b60200101906001600160f81b031916908160001a90535060006129d0846002613529565b6129db906001613211565b90505b6001811115612a53576f181899199a1a9b1b9c1cb0b131b232b360811b85600f1660108110612a0f57612a0f6131d2565b1a60f81b828281518110612a2557612a256131d2565b60200101906001600160f81b031916908160001a90535060049490941c93612a4c81613760565b90506129de565b508315612aa25760405162461bcd60e51b815260206004820181905260248201527f537472696e67733a20686578206c656e67746820696e73756666696369656e746044820152606401610ae8565b9392505050565b612ab2816127ea565b6040516001600160a01b038216907fbc7cd75a20ee27fd9adebab32041f755214dbc6bffa90cc0225b39da2e5c2d3b90600090a250565b6060612aa283836040518060600160405280602781526020016137f4602791396060600080856001600160a01b031685604051612b269190613777565b600060405180830381855af49150503d8060008114612b61576040519150601f19603f3d011682016040523d82523d6000602084013e612b66565b606091505b5091509150612b7786838387612b81565b9695505050505050565b60608315612bf0578251600003612be9576001600160a01b0385163b612be95760405162461bcd60e51b815260206004820152601d60248201527f416464726573733a2063616c6c20746f206e6f6e2d636f6e74726163740000006044820152606401610ae8565b5081612bfa565b612bfa8383612c02565b949350505050565b815115612c125781518083602001fd5b8060405162461bcd60e51b8152600401610ae89190612d53565b508054612c3890613161565b6000825580601f10612c48575050565b601f01602090049060005260206000209081019061116b91905b80821115612c765760008155600101612c62565b5090565b600060208284031215612c8c57600080fd5b81356001600160e01b031981168114612aa257600080fd5b80356001600160a01b0381168114612cbb57600080fd5b919050565b80358015158114612cbb57600080fd5b60008060408385031215612ce357600080fd5b612cec83612ca4565b9150612cfa60208401612cc0565b90509250929050565b60005b83811015612d1e578181015183820152602001612d06565b50506000910152565b60008151808452612d3f816020860160208601612d03565b601f01601f19169290920160200192915050565b602081526000612aa26020830184612d27565b600080600060608486031215612d7b57600080fd5b505081359360208301359350604090920135919050565b634e487b7160e01b600052604160045260246000fd5b600067ffffffffffffffff80841115612dc357612dc3612d92565b604051601f8501601f19908116603f01168101908282118183101715612deb57612deb612d92565b81604052809350858152868686011115612e0457600080fd5b858560208301376000602087830101525050509392505050565b600082601f830112612e2f57600080fd5b612aa283833560208501612da8565b600080600060608486031215612e5357600080fd5b833567ffffffffffffffff80821115612e6b57600080fd5b612e7787838801612e1e565b94506020860135915080821115612e8d57600080fd5b50612e9a86828701612e1e565b925050612ea960408501612ca4565b90509250925092565b60008060408385031215612ec557600080fd5b612ece83612ca4565b946020939093013593505050565b600080600060608486031215612ef157600080fd5b612efa84612ca4565b9250612f0860208501612ca4565b9150604084013590509250925092565b600060208284031215612f2a57600080fd5b5035919050565b608081526000612f446080830187612d27565b6020830195909552506040810192909252606090910152919050565b60008060408385031215612f7357600080fd5b82359150612cfa60208401612ca4565b600060208284031215612f9557600080fd5b612aa282612ca4565b60008060408385031215612fb157600080fd5b612fba83612ca4565b9150602083013567ffffffffffffffff811115612fd657600080fd5b8301601f81018513612fe757600080fd5b612ff685823560208401612da8565b9150509250929050565b6000806000806060858703121561301657600080fd5b843567ffffffffffffffff8082111561302e57600080fd5b818701915087601f83011261304257600080fd5b81358181111561305157600080fd5b88602082850101111561306357600080fd5b6020928301999098509187013596604001359550909350505050565b6000806040838503121561309257600080fd5b61309b83612ca4565b9150612cfa60208401612ca4565b60008083601f8401126130bb57600080fd5b50813567ffffffffffffffff8111156130d357600080fd5b6020830191508360208260051b85010111156130ee57600080fd5b9250929050565b6000806000806040858703121561310b57600080fd5b843567ffffffffffffffff8082111561312357600080fd5b61312f888389016130a9565b9096509450602087013591508082111561314857600080fd5b50613155878288016130a9565b95989497509550505050565b600181811c9082168061317557607f821691505b60208210810361319557634e487b7160e01b600052602260045260246000fd5b50919050565b6020808252601f908201527f415254546f6b656e3a20696e76616c6964207265736572766520696e64657800604082015260600190565b634e487b7160e01b600052603260045260246000fd5b634e487b7160e01b600052601160045260246000fd5b8181038181111561099c5761099c6131e8565b8082018082111561099c5761099c6131e8565b848152600060206080818401526000865461323e81613161565b80608087015260a0600180841660008114613260576001811461327a576132a8565b60ff1985168984015283151560051b8901830195506132a8565b8b6000528660002060005b858110156132a05781548b8201860152908301908801613285565b8a0184019650505b5050505050604084019590955250506060015292915050565b6020808252602c908201527f46756e6374696f6e206d7573742062652063616c6c6564207468726f7567682060408201526b19195b1959d85d1958d85b1b60a21b606082015260800190565b6020808252602c908201527f46756e6374696f6e206d7573742062652063616c6c6564207468726f7567682060408201526b6163746976652070726f787960a01b606082015260800190565b60208082526021908201527f415254546f6b656e3a20726563697069656e74206e6f7420636f6d706c69616e6040820152601d60fa1b606082015260800190565b60208082526022908201527f415254546f6b656e3a20726563697069656e7420697320626c61636b6c697374604082015261195960f21b606082015260800190565b601f82111561100c57600081815260208120601f850160051c810160208610156134035750805b601f850160051c820191505b81811015611b3b5782815560010161340f565b815167ffffffffffffffff81111561343c5761343c612d92565b6134508161344a8454613161565b846133dc565b602080601f831160018114613485576000841561346d5750858301515b600019600386901b1c1916600185901b178555611b3b565b600085815260208120601f198616915b828110156134b457888601518255948401946001909101908401613495565b50858210156134d25787850151600019600388901b60f8161c191681555b5050505050600190811b01905550565b85815260806020820152836080820152838560a0830137600060a08583010152600060a0601f19601f87011683010190508360408301528260608301529695505050505050565b808202811582820484141761099c5761099c6131e8565b60008261355d57634e487b7160e01b600052601260045260246000fd5b500490565b60006020828403121561357457600080fd5b612aa282612cc0565b60006001820161358f5761358f6131e8565b5060010190565b8181036135a1575050565b6135ab8254613161565b67ffffffffffffffff8111156135c3576135c3612d92565b6135d18161344a8454613161565b6000601f82116001811461360557600083156135ed5750848201545b600019600385901b1c1916600184901b17845561366a565b600085815260209020601f19841690600086815260209020845b8381101561363f578286015482556001958601959091019060200161361f565b508583101561365d5781850154600019600388901b60f8161c191681555b50505060018360011b0184555b5050505050565b634e487b7160e01b600052603160045260246000fd5b6020808252602b908201527f496e697469616c697a61626c653a20636f6e7472616374206973206e6f74206960408201526a6e697469616c697a696e6760a81b606082015260800190565b6000602082840312156136e457600080fd5b5051919050565b7f416363657373436f6e74726f6c3a206163636f756e7420000000000000000000815260008351613723816017850160208801612d03565b7001034b99036b4b9b9b4b733903937b6329607d1b6017918401918201528351613754816028840160208801612d03565b01602801949350505050565b60008161376f5761376f6131e8565b506000190190565b60008251613789818460208701612d03565b919091019291505056fe360894a13ba1a3210667c828492db98dca3e2076cc3735a920a3ca505d382bbc442a94f1a1fac79af32856af2a64f63648cfa2ef3b98610a5bb7cbec4cee698565d7a28e3265b37a6474929f336521b332c1681b933f6cb9f3376673440d862a416464726573733a206c6f772d6c6576656c2064656c65676174652063616c6c206661696c6564b1fadd3142ab2ad7f1337ea4d97112bcc8337fc11ce5b20cb04ad038adf99819a26469706673582212200658c0c01c3ceb97623f534f0b2353454f9c425aa1670646c0baf4065d0682f664736f6c63430008140033",
  "linkReferences": {},
  "deployedLinkReferences": {}
}